:10000000002000100902000031020000330200004D
:1000100000000000000000000000000000000000E0
:100020000000000000000000000000003502000099
:100030000000000000000000390200003B02000048
:100040003F0200003F0200003F0200003F020000AC
:100050003F0200003F0200003F0200003F0200009C
:100060003F0200003F0200003F0200003F0200008C
:100070003F020000000000004102000043020000B7
:100080004502000047020000490200004B02000048
:100090004D0200004F0200000000000000000000C0
:1000A0005102000053020000550200000000000051
:1000B00057020000590200005B0200005D020000D0
:1000C00010B5064C2378002B07D1054B002B02D02E
:1000D000044800E000BF0123237010BD740000102D
:1000E00000000000A4030000044B10B5002B03D057
:1000F0000349044800E000BF10BDC04600000000F6
:1001000078000010A4030000164B002B00D1144B04
:100110009D46402292029A1A924600218B460F4633
:100120001348144A121A00F065F80F4B002B00D048
:1001300098470E4B002B00D0984700200021040068
:100140000D000D48002802D00C4800E000BF00F070
:100150002DF82000290000F0ABF800F011F8C0469F
:100160000000080000200010000000000000000057
:100170007400001094000010000000000000000057
:10018000084B10B50400002B02D0002100E000BF96
:10019000054B1868836A002B00D09847200000F0B8
:1001A00031F8C04600000000A003000070B5002632
:1001B0000C4D0D4C641BA410A64209D1002600F082
:1001C000E3F80A4D0A4C641BA410A64205D170BD89
:1001D000B300EB5898470136EEE7B300EB58984769
:1001E0000136F2E76C0000106C0000106C0000108B
:1001F0007000001003001218934200D1704719706C
:100200000133F9E7FEE7C0460649074A074B9B1A48
:1002100003DD043BC858D050FBDC00F09FF8FFF72B
:1002200073FF0000B0030000000000107400001015
:10023000FEE7FEE7FEE7FEE7FEE7FEE7FEE7FEE796
:10024000FEE7FEE7FEE7FEE7FEE7FEE7FEE7FEE786
:10025000FEE7FEE7FEE7FEE7FEE7FEE7FEE7C04655
:10026000013800D27047C046FAE700000B4B0C4A39
:10027000D96F0A43DA67C046C046C0460021094A22
:100280001160DA6F08490A40DA67802220230749A3
:100290001202885803438B507047C04604800440C4
:1002A00040000100A0400440FFFFFEFF000001509D
:1002B00070B5FFF7DBFF37232026084C2360C046CC
:1002C0002368074D013307482360FFF7C9FFEE6736
:1002D0000448FFF7C5FF0023EB67F0E7900000102C
:1002E0000400015005800000164B174A00211A60D7
:1002F0000122164B19645A6459645A64596C1142AC
:10030000FCD023219A688020520A52020A438E218F
:100310009A6089005A5882435A500122D968114282
:10032000FCD00321196700215A6759675A670122D7
:10033000596F1142FCD09A67054B064A1360064A72
:100340001360704760000010001BB700008004407D
:10035000006CDC02680000106400001000238E2294
:10036000202110B5074C92002362A3588B43A35061
:10037000FFF7BAFF80230434E26F5B021343E367A5
:1003800010BDC04600800440F8B5C046F8BC08BCAB
:100390009E467047F8B5C046F8BC08BC9E467047FC
:0803A000000000100000000045
:0803A80060FDFF7F0100000071
:1003B000000000000000000000000000000000003D
:1003C000000000000000000000000000000000002D
:1003D000000000000000000000000000000000001D
:1003E000000000000000000000000000000000000D
:1003F00000000000000000000000000000000000FD
:1004000000000000000000000000000000000000EC
:10041000001BB700001BB700001BB700E90000007D
:04042000C100000017
:0400000300000209EE
:00000001FF
